:020000040800F2
:1000000000000220E13E0008DD3B0008DF3B000865
:10001000E13B0008E33B0008E53B0008000000006E
:10002000000000000000000000000000E73B0008A6
:10003000E93B000800000000EB3B0008ED3B000836
:10004000313F0008313F0008313F0008313F0008D0
:10005000313F0008313F0008F13B0008313F000804
:10006000313F0008313F0008313F0008313F0008B0
:10007000313F0008313F0008313F0008313F0008A0
:10008000313F0008313F0008313F0008313F000890
:10009000313F0008313F0008313F0008253C00088F
:1000A000313F0008313F0008313F0008313F000870
:1000B000313F0008853C0008353D0008313F00080D
:1000C000313F0008FD3D0008093E0008313F0008AF
:1000D000313F0008313F0008153E0008313F00085D
:1000E000213E0008313F0008313F0008313F000841
:1000F000313F0008313F0008313F0008313F000820
:10010000313F0008313F0008313F0008313F00080F
:10011000313F0008313F0008313F0008313F0008FF
:10012000313F0008313F0008313F0008313F0008EF
:10013000313F0008313F0008313F0008313F0008DF
:10014000313F0008313F0008313F0008313F0008CF
:10015000313F0008313F0008313F0008313F0008BF
:10016000313F0008313F0008313F0008313F0008AF
:10017000313F0008313F0008313F00080000000017
:08018000313F0008313F000887
:1001900010B5054C237833B9044B13B10448AFF3C1
:1001A00000800123237010BD7400002000000000B7
:1001B0006C58000808B5034B1BB103490348AFF363
:1001C000008008BD00000000780000206C58000886
:1001D000034613F8012B002AFBD1181A0138704787
:1001E00001F0FF01102A2BDB10F0070F08D010F8E8
:1001F000013B013A8B422DD010F0070F42B3F6D1EC
:10020000F0B441EA012141EA014122F007047FF004
:1002100000070023F0E80256083C85EA010586EA5B
:10022000010685FA47F5A3FA87F586FA47F6A5FA97
:1002300087F68EB9EED1F0BC01F0FF0102F00702A3
:1002400032B110F8013B013A83EA010313B1F8D14E
:100250000020704701387047002D06BF354603382F
:10026000073815F0010F07D1013015F4807F02BF68
:10027000013015F4C03F0130F0BC0138704700BFB9
:1002800081F0004102E000BF83F0004330B54FEA47
:1002900041044FEA430594EA050F08BF90EA020FB4
:1002A0001FBF54EA000C55EA020C7FEA645C7FEA47
:1002B000655C00F0E2804FEA5454D4EB5555B8BF6A
:1002C0006D420CDD2C4480EA020281EA030382EADB
:1002D000000083EA010180EA020281EA0303362D6D
:1002E00088BF30BD11F0004F4FEA01314FF4801C40
:1002F0004CEA113102D0404261EB410113F0004F52
:100300004FEA03334CEA133302D0524263EB430308
:1003100094EA050F00F0A780A4F10104D5F1200EA6
:100320000DDB02FA0EFC22FA05F2801841F1000101
:1003300003FA0EF2801843FA05F359410EE0A5F1D5
:1003400020050EF1200E012A03FA0EFC28BF4CF006
:10035000020C43FA05F3C01851EBE37101F00045BC
:1003600007D54FF0000EDCF1000C7EEB00006EEBC9
:100370000101B1F5801F1BD3B1F5001F0CD3490853
:100380005FEA30004FEA3C0C04F101044FEA4452AA
:1003900012F5800F80F09A80BCF1004F08BF5FEA31
:1003A000500C50F1000041EB045141EA050130BD11
:1003B0005FEA4C0C404141EB010111F4801FA4F1B4
:1003C0000104E9D191F0000F04BF01460020B1FA09
:1003D00081F308BF2033A3F10B03B3F120020CDA41
:1003E0000C3208DD02F1140CC2F10C0201FA0CF01F
:1003F00021FA02F10CE002F11402D8BFC2F1200C84
:1004000001FA02F120FA0CFCDCBF41EA0C01904039
:10041000E41AA2BF01EB0451294330BD6FEA040482
:100420001F3C1CDA0C340EDC04F11404C4F120026D
:1004300020FA04F001FA02F340EA030021FA04F37F
:1004400045EA030130BDC4F10C04C4F1200220FAD6
:1004500002F001FA04F340EA0300294630BD21FA14
:1004600004F0294630BD94F0000F83F4801306BFDA
:1004700081F480110134013D4EE77FEA645C18BFCE
:100480007FEA655C29D094EA050F08BF90EA020F65
:1004900005D054EA000C04BF1946104630BD91EA5D
:1004A000030F1EBF0021002030BD5FEA545C05D160
:1004B0004000494128BF41F0004130BD14F580049F
:1004C0003CBF01F5801130BD01F0004545F0FE4113
:1004D00041F470014FF0000030BD7FEA645C1ABF48
:1004E000194610467FEA655C1CBF0B46024650EA7F
:1004F000013406BF52EA033591EA030F41F40021AB
:1005000030BD00BF90F0000F04BF0021704730B530
:100510004FF4806404F132044FF000054FF0000105
:1005200050E700BF90F0000F04BF0021704730B5C6
:100530004FF4806404F1320410F0004548BF40429B
:100540004FF000013EE700BF42004FEAE2014FEAF0
:1005500031014FEA02701FBF12F07F4393F07F4FCB
:1005600081F06051704792F0000F14BF93F07F4FFD
:10057000704730B54FF4607401F0004521F0004140
:1005800020E700BF50EA010208BF704730B54FF0C6
:1005900000050AE050EA010208BF704730B511F0CB
:1005A000004502D5404261EB41014FF4806404F103
:1005B00032045FEA915C3FF4DCAE4FF003025FEA85
:1005C000DC0C18BF03325FEADC0C18BF033202EB0D
:1005D000DC02C2F1200300FA03FC20FA02F001FA67
:1005E00003FE40EA0E0021FA02F11444C1E600BF06
:1005F00070B54FF0FF0C4CF4E06C1CEA11541DBFB9
:100600001CEA135594EA0C0F95EA0C0F00F0DEF883
:100610002C4481EA030621EA4C5123EA4C5350EA68
:10062000013518BF52EA033541F4801143F48013B9
:1006300038D0A0FB02CE4FF00005E1FB02E506F04A
:100640000042E0FB03E54FF00006E1FB03569CF09F
:10065000000F18BF4EF0010EA4F1FF04B6F5007FA5
:1006600064F5407404D25FEA4E0E6D4146EB060617
:1006700042EAC62141EA55514FEAC52040EA5E50A0
:100680004FEACE2EB4F1FD0C88BFBCF5E06F1ED84A
:10069000BEF1004F08BF5FEA500E50F1000041EB81
:1006A000045170BD06F0004646EA010140EA02002E
:1006B00081EA0301B4EB5C04C2BFD4EB0C0541EA50
:1006C000045170BD41F480114FF0000E013C00F365
:1006D000AB8014F1360FDEBF002001F0004170BD89
:1006E000C4F10004203C35DA0C341BDC04F11404A2
:1006F000C4F1200500FA05F320FA04F001FA05F22E
:1007000040EA020001F0004221F0004110EBD370FA
:1007100021FA04F642EB06015EEA430E08BF20EA26
:10072000D37070BDC4F10C04C4F1200500FA04F3C9
:1007300020FA05F001FA04F240EA020001F000415B
:1007400010EBD37041F100015EEA430E08BF20EACE
:10075000D37070BDC4F1200500FA05F24EEA020E16
:1007600020FA04F301FA05F243EA020321FA04F045
:1007700001F0004121FA04F220EA020000EBD370FC
:100780005EEA430E08BF20EAD37070BD94F0000FFC
:100790000FD101F00046400041EB010111F4801F30
:1007A00008BF013CF7D041EA060195F0000F18BFE1
:1007B000704703F00046520043EB030313F4801F1D
:1007C00008BF013DF7D043EA0603704794EA0C0FD7
:1007D0000CEA135518BF95EA0C0F0CD050EA4106ED
:1007E00018BF52EA4306D1D181EA030101F000416A
:1007F0004FF0000070BD50EA410606BF1046194692
:1008000052EA430619D094EA0C0F02D150EA01369D
:1008100013D195EA0C0F05D152EA03361CBF1046DE
:1008200019460AD181EA030101F0004141F0FE417D
:1008300041F470014FF0000070BD41F0FE4141F401
:10084000780170BD70B54FF0FF0C4CF4E06C1CEA01
:1008500011541DBF1CEA135594EA0C0F95EA0C0FB6
:1008600000F0A7F8A4EB050481EA030E52EA033571
:100870004FEA013100F088804FEA03334FF0805592
:1008800045EA131343EA12634FEA022245EA1115BF
:1008900045EA10654FEA00260EF000419D4208BF70
:1008A000964244F1FD0404F5407402D25B084FEA1D
:1008B0003202B61A65EB03055B084FEA32024FF4C9
:1008C00080104FF4002CB6EB020E75EB030E22BF26
:1008D000B61A754640EA0C005B084FEA3202B6EBE6
:1008E000020E75EB030E22BFB61A754640EA5C0095
:1008F0005B084FEA3202B6EB020E75EB030E22BF25
:10090000B61A754640EA9C005B084FEA3202B6EB25
:10091000020E75EB030E22BFB61A754640EADC00E4
:1009200055EA060E18D04FEA051545EA16754FEA46
:1009300006164FEAC30343EA52734FEAC2025FEA64
:100940001C1CC0D111F4801F0BD141EA00014FF0F3
:1009500000004FF0004CB6E711F4801F04BF0143C4
:100960000020B4F1FD0C88BFBCF5E06F3FF6AFAEE0
:10097000B5EB030C04BFB6EB020C5FEA500C50F170
:10098000000041EB045170BD0EF0004E4EEA1131F3
:1009900014EB5C04C2BFD4EB0C0541EA045170BDFA
:1009A00041F480114FF0000E013C90E645EA060E3E
:1009B0008DE60CEA135594EA0C0F08BF95EA0C0F6C
:1009C0003FF43BAF94EA0C0F0AD150EA01347FF4B4
:1009D00034AF95EA0C0F7FF425AF104619462CE78B
:1009E00095EA0C0F06D152EA03353FF4FDAE1046EE
:1009F000194622E750EA410618BF52EA43067FF43F
:100A0000C5AE50EA41047FF40DAF52EA43057FF4CE
:100A1000EBAE12E74FF0FF3C06E000BF4FF0010CD9
:100A200002E000BF4FF0010C4DF804CD4FEA410C3D
:100A30007FEA6C5C4FEA430C18BF7FEA6C5C1BD00A
:100A400001B050EA410C0CBF52EA430C91EA030F8B
:100A500002BF90EA020F0020704710F1000F91EAE8
:100A6000030F58BF994208BF90422CBFD8176FEAB6
:100A7000E37040F0010070474FEA410C7FEA6C5C84
:100A800002D150EA013C07D14FEA430C7FEA6C5C8B
:100A9000D6D152EA033CD3D05DF8040B704700BFB7
:100AA0008446104662468C461946634600E000BF05
:100AB00001B5FFF7B7FF002848BF10F1000F01BDD7
:100AC0004DF808EDFFF7F4FF0CBF012000205DF8A2
:100AD00008FB00BF4DF808EDFFF7EAFF34BF012027
:100AE00000205DF808FB00BF4DF808EDFFF7E0FFC0
:100AF00094BF012000205DF808FB00BF4DF808ED11
:100B0000FFF7CEFF94BF012000205DF808FB00BF77
:100B10004DF808EDFFF7C4FF34BF012000205DF859
:100B200008FB00BF4FEA410212F5001215D211D5A1
:100B30006FF47873B3EB625212D94FEAC12343F0DA
:100B4000004343EA505311F0004F23FA02F018BF5C
:100B5000404270474FF00000704750EA013005D125
:100B600011F0004008BF6FF0004070474FF00000E8
:100B7000704700BF53B94AB9002908BF00281CBFFD
:100B80004FF0FF314FF0FF3000F07AB9ADF1080CB3
:100B90006DE904CE00F006F8DDF804E0DDE902239B
:100BA00004B070472DE9F0478C460D460446089E78
:100BB000002B51D18A4217466DD9B2FA82FEBEF19E
:100BC000000F0BD0CEF1200C01FA0EF520FA0CFC30
:100BD00002FA0EF74CEA050C00FA0EF44FEA174A37
:100BE000250CBCFBFAF81FFA87F90AFB18CC45EA7A
:100BF0000C4508FB09F3AB420AD9ED1908F1FF32A5
:100C000080F02381AB4240F22081A8F102083D44EC
:100C1000ED1AA4B2B5FBFAF00AFB105544EA0544FC
:100C200000FB09F9A14509D9E41900F1FF3380F06F
:100C30000A81A14540F2078102383C44A4EB090433
:100C400040EA08400021002E61D024FA0EF400236F
:100C500034607360BDE8F0878B4207D9002E54D012
:100C6000002186E821000846BDE8F087B3FA83F149
:100C7000002940F08E80AB4202D3824200F2FA801B
:100C8000841A65EB03050120AC46002E3FD086E8B0
:100C90001010BDE8F08712B90127B7FBF2F7B7FAD9
:100CA00087FEBEF1000F34D1EB1B3A0C1FFA87FC14
:100CB0000121B3FBF2F8250C02FB183345EA03458A
:100CC0000CFB08F3AB4207D9ED1908F1FF3002D253
:100CD000AB4200F2D1808046ED1AA3B2B5FBF2F030
:100CE00002FB105543EA05440CFB00FCA44507D960
:100CF000E41900F1FF3302D2A44500F2B88018468F
:100D0000A4EB0C0440EA08409DE731463046BDE8BC
:100D1000F087CEF1200405FA0EF307FA0EF720FA59
:100D200004F83A0C25FA04F448EA0308B4FBF2F19B
:100D30004FEA184502FB11441FFA87FC45EA0445B7
:100D400001FB0CF3AB4200FA0EF409D9ED1901F1E5
:100D5000FF3080F08A80AB4240F2878002393D4408
:100D6000EB1A1FFA88F5B3FBF2F002FB103345EAE9
:100D7000034500FB0CF3AB4207D9ED1900F1FF3836
:100D80006FD2AB426DD902383D44EB1A40EA0141C3
:100D90008FE7C1F1200722FA07F88B4005FA01F42A
:100DA00048EA030320FA07FE4FEA134CFD404EEADF
:100DB000040EB5FBFCF94FEA1E440CFB19551FFA53
:100DC00083F844EA054509FB08F4AC4202FA01F253
:100DD00000FA01FA08D9ED1809F1FF3043D2AC420C
:100DE00041D9A9F102091D442D1B1FFA8EFEB5FB46
:100DF000FCF00CFB10554EEA054400FB08F8A0453A
:100E000007D9E41800F1FF3529D2A04527D90238C7
:100E10001C4440EA0940A4EB0804A0FB02894C45AD
:100E2000C6464D4615D312D056B1BAEB0E0364EB4D
:100E3000050404FA07F7CB401F43CC4037607460C9
:100E40000021BDE8F0871846F8E69046E0E6C24586
:100E5000EAD2B8EB020E69EB03050138E4E7284655
:100E6000D7E7404691E78146BEE7014678E702387A
:100E70003C4445E7084608E7A8F102083D442BE753
:100E8000704700BF38B50E4A0E4B054618784FF430
:100E90007A73B3FBF0F31068B0FBF3F000F094F852
:100EA000044658B90F2D09D8024629464FF0FF30A5
:100EB00000F04AF8044B20461D6038BD012038BDC3
:100EC0000C000020000000200400002008B50B4B9F
:100ED0001A6842F400721A601A6842F480621A605A
:100EE0001A6842F480721A60032000F01BF8002098
:100EF000FFF7C8FF02F056FD002008BD003C02408D
:100F0000034A044B11681B780B441360704700BF01
:100F1000B400002000000020014B1868704700BF9B
:100F2000B4000020074AD36823F4E0631B041B0CC1
:100F300043F0BF63000243F4003300F4E060034376
:100F4000D360704700ED00E0174B30B5DC68C4F3A8
:100F50000224C4F10703251D042B28BF0423062DFA
:100F60004FF0010505FA03F303F1FF338CBF033C97
:100F700000241940A14005FA04F4013C2240002855
:100F800042EA01024FEA0212AFBF00F1604000F0F6
:100F90000F00064BD2B2A5BF00F56140D2B21A5481
:100FA00080F8002330BD00BF00ED00E014ED00E04C
:100FB0004209012300F01F0003FA00F0014B43F83F
:100FC0002200704700E100E00138B0F1807F0AD2D2
:100FD000064B074A5860F02182F8231000200722B0
:100FE00098601A6070470120704700BF10E000E071
:100FF00000ED00E090F83530022B03D080234365EC
:10100000012070470268052380F83530136823F00B
:1010100001031360002070472DE9F04F85B00B6885
:10102000DFF8AC81684ADFF8AC91019300234FF000
:10103000010E019C0EFA03FE0EEA0406B64540F0CE
:10104000AE804C6824F01007022F16D14FEAD30A65
:1010500000EB8A0A03F0070BDAF820504FEA8B0BFB
:101060004FF00F0C0CFA0BFC25EA0C0C0D6905FA7D
:101070000BF545EA0C05CAF820504FEA430A032550
:10108000D0F800B005FA0AF5ED4304F0030C0BEAC2
:10109000050B0CFA0AFC013F4CEA0B0C012FC0F8BF
:1010A00000C011D8876807EA050BCF6807FA0AFC69
:1010B0004CEA0B078760476827EA0E0EC4F3001757
:1010C0009F4047EA0E074760C7683D408F6807FAB0
:1010D0000AF73D43C560E50061D54FF0000BCDF840
:1010E0000CB0D8F84470394D47F48047C8F84470C4
:1010F000D8F8447007F480470397039F23F0030751
:1011000007F1804707F59C3703F0030CD7F808A0D8
:101110004FEA8C0C4FF00F0E0EFA0CFEA8422AEA92
:101120000E0E43D005F58065A84241D005F58065D7
:10113000A8423FD005F58065A8423DD005F5806501
:10114000A8423BD048453BD005F50065A84239D0C0
:1011500005F58065A84214BF0825072505FA0CF59A
:1011600045EA0E05BD601568F74314F4803F0CBFD7
:101170003D4035431560556814F4003F0CBF3D40B9
:1011800035435560956814F4801F0CBF3D403543CE
:101190009560D568A40254BF3D403543D560013306
:1011A000102B7FF444AF05B0BDE8F08F5D46D5E766
:1011B0000125D3E70225D1E70325CFE70425CDE7B5
:1011C0000525CBE70625C9E7003C014000000240A9
:1011D00000380240001402400369194214BF012084
:1011E000002070470AB1816170470904FBE7436939
:1011F000594041617047704708B5044B5969014235
:1012000002D05861FFF7F7FF08BD00BF003C014066
:1012100070B50446002862D090F83D3003F0FF021C
:101220001BB980F83C2002F0D9FB22682D4E2E4DD0
:10123000242384F83D30136823F00103136000F089
:1012400067FF63682268B0FBF5F5B34284BF4FF4D3
:1012500096716943556091BF691C4FF47A75B1FB73
:10126000F5F10131B342116221D85B00B0FBF3F01C
:10127000C0F30B03032B98BF0420216AE369D061FC
:101280000B431360E16823690B439360A1696369B1
:101290000B43D360136843F0010313600020202345
:1012A000206484F83D30206384F83E0070BDA1685E
:1012B00049B903EB4303B0FBF3F0C0F30B0363B195
:1012C00040F40040D9E719214B43B0FBF3F0C0F3E1
:1012D0000B0313B140F44040CFE70120CDE70120DC
:1012E00070BD00BFA086010040420F0070477047EC
:1012F0007047704770477047704770477047704736
:1013000090F83D30293B012B10B50368044639D8CD
:1013100000220263282280F83D201A6822F400622D
:101320001A605A6812F4006254D05A68606B22F452
:1013300000625A6090F83530012B394B31D003658B
:10134000FFF758FE50B12268606B136823F0010369
:101350001360202384F83D30036D984794F83D30A6
:10136000282B0ED1236C5B070BD52E4BE36220227A
:1013700000232363204684F83D2084F83E30FFF7A5
:10138000BAFF10BD90F83D20602A05D05A681205BA
:101390005CBF202280F83D200022226384F83E209A
:1013A000BBE7A06B0365FFF725FE0028D6D02268B7
:1013B0005369580604D5636A1269591C61621A7030
:1013C0002268A06B136823F001031360202384F8C4
:1013D0003D30C1E794F83D10602914D1202184F8F4
:1013E0003D1022645A69510604D5626A1B69511C7A
:1013F000616213702268136823F0010313602046B2
:10140000FFF77DFFAAE75A69520604D5626A1B6995
:10141000511C616213702046FFF770FF9EE700BF0A
:10142000311C00080000FFFF0368F0B59D69596991
:101430005A6890F83E40E4B2102C8DB002D0402C97
:1014400040F0558211F0011F66D0970564D590F8E1
:101450003E40402C43D1046D002C3BD1446C04F041
:10146000FE041C61984E994C2E400C40002E00F05A
:101470009F81974D0D40002D00F06681550540F18C
:101480006381002C40F0608190F83D20058D90F83C
:101490003E10C46AD2B2C9B2002D40F00581212AA3
:1014A00040F00481042C00F06C81082C00F069816C
:1014B00014F5803F00F065815A6822F4E0625A60BA
:1014C0001123036380F83E50202380F83D30FFF75E
:1014D0000DFFF6E0446C44F00104E4B2C1E7046996
:1014E000B4F5804F05D190F83D40212C446CF2D1E9
:1014F000B5E7046D34B9446CE41104F0060444F01B
:10150000F004AEE7046D012CACD1446CE41104F09E
:10151000060444F0F104A4E76E4C0C401CB196059F
:1015200001D5446CD9E76C4C0C40002C9AD0940542
:1015300098D590F83E40C66AD0F830E090F83D70FB
:10154000222FE4B240F0A880076D47B9402C06D1A5
:1015500001975C6901949C690194019C82E7046D88
:101560008CB90769B7F5404F0DD102945C690294BC
:101570009C690294029C1C6844F480741C60046D95
:10158000013404656EE7448DA4B254B903945C69D8
:1015900003949C690394039C1C6844F400741C60CD
:1015A00019E0448DA4B2012C42D116F5803F1BD125
:1015B0001C6824F480641C605C6814F400640CD023
:1015C0001C6824F480641C60002404945C69049406
:1015D0009C690494049C0024D3E705945C690594F9
:1015E0009C690594059CD7E7042E15D0082E13D0CE
:1015F000BEF1120F10D0C46A022C1C6814BF24F470
:10160000806444F480641C60002406945C69069441
:101610009C690694069CDEE71C6824F480641C60C8
:10162000002407945C6907949C690794079CB3E7BE
:10163000448DA4B2022C1CD1C46A022C1C681DBFAC
:1016400024F480641C601C6844F4806418BF44F473
:1016500000641C605C68270542BF5C6844F48054E9
:101660005C60002408945C6908949C690894089C58
:10167000B1E71C6844F480641C605C68260542BFC6
:101680005C6844F480545C60002409945C690994AB
:101690009C690994099C9EE700240A945C690A9459
:1016A0009C690A940A9CDDE6212A03D0402908D1CE
:1016B000222A06D1428D92B282B95A6822F48062FF
:1016C0005A600DB0F0BD00BF04001000040001001E
:1016D00080000100080001000200010090F83E2097
:1016E000402A27D1026D7AB9C26C012A826C05D1D9
:1016F000D2B21A61036D02330365E2E7C2F3072237
:101700001A61036D0133F7E7026D012A02D1826C81
:10171000D2B2F5E7026D022AD3D190F83D20222AF9
:1017200004D11A6842F480721A60CAE790F83D202A
:10173000212AC6D1426A511C416212781A61438D36
:10174000013B9BB24385BCE7002CBAD09405B8D5C9
:10175000C16A90F83D20212AB3D1428D92B2002A6D
:10176000E8D104290DD008290BD011F5803F08D00D
:10177000596821F4E06159601123036380F83E2029
:10178000A2E65A6822F4E0625A601A6842F40072D3
:101790001A6000232022036380F83D2090F83E2049
:1017A00080F83E30402A7FF492AEFFF7A5FD88E72F
:1017B000904D0D40002D41D051053FD5002C3DD11D
:1017C00090F83D20222A7FF47CAF428D92B2032A0A
:1017D00013D9426A1B69511C41621370438D013B4E
:1017E0009BB24385438D9BB2032B7FF46AAF0268A3
:1017F000536823F48063536063E7012A3FF661AFC7
:101800001A6822F480621A605A6822F4E0625A6010
:10181000426A1B69511C41621370438D013B9BB2AC
:101820004385202380F83D30046390F83E3080F8F3
:101830003E40402B58D1FFF760FD42E7002C3FF4BB
:1018400040AF97057FF53DAFC16A428D92B2042A41
:10185000426A08D1596821F480615960511C1B69A2
:10186000416213706BE7448DA4B2032C08D1596810
:1018700021F480615960196821F480611960EDE7F5
:10188000448DA4B2022CE9D10139012919689DBF08
:1018900021F480611960196841F4007198BF41F426
:1018A000807119601B69511C41621370438D013BAB
:1018B0009BB24385436A5A1C4262026812691A70DD
:1018C000438D0268013B9BB24385536823F4407308
:1018D0005360202380F83D300023036390F83E20BE
:1018E00080F83E30402AA5E7FFF701FDE9E6424CCB
:1018F0000C4074B196050CD599699B6981F004017F
:101900001D06C1F3800154BF8289028BFFF7F2FCF0
:10191000D7E63A4C0C40002C74D0940572D590F860
:101920003D20596821F4E061596000210B9159690B
:101930000B91196841F0010119600B99196821F4A4
:101940008061196059680905D2B20CD590F83D1034
:10195000222903D090F83D102A2929D1816B0968EA
:10196000496889B24185418D89B2E1B159694F0712
:1019700008D5416A1B694C1C44620B70438D013BC6
:101980009BB2438501684B695E0608D5436A0969C5
:101990005C1C44621970438D013B9BB24385036C10
:1019A00043F004030364036C23B1FFF7A9FC88E64A
:1019B000416BD4E7A2F1280102290AD8104AC26279
:1019C0002022036380F83D2080F83E30FFF793FC2F
:1019D00077E6036B222B02D0222A7FF472AE00231B
:1019E0002022036380F83D2080F83E30FFF781FC21
:1019F00067E600BF40000100020001001000010086
:101A00000000FFFF394E3A4C2E400C40002E36D0DD
:101A1000384D0D403DB3550525D524BB90F83D10FC
:101A2000428D92B2C9B2002A3FF44BAE426A541CB6
:101A3000446212781A61428D013A92B24285428D17
:101A400092B2002A7FF43DAE29297FF43AAE5A685B
:101A500022F480625A6021230363282380F83D30FA
:101A6000FFF746FC2DE6002C3FF42BAE94057FF5E6
:101A700028AE428D92B2002A7FF45CAE21E61E4D64
:101A80000D4035B3510524D51CBB90F83D20418D48
:101A900089B2D2B200293FF414AE416A1B694C1CD2
:101AA00044620B70438D013B9BB24385438D9BB2D7
:101AB000002B7FF406AE2A2A7FF403AE0268536837
:101AC00023F48063536022230363282380F83D308E
:101AD0008CE7002C3FF4F5AD92057FF5F2AD428D19
:101AE00092B2002A3FF4EDAD426AB7E6040010005E
:101AF000040001008000010040000100F8B5036807
:101B0000494A5E695D681642044608D0E80506D574
:101B1000226C42F0010222646FF480725A6116F462
:101B2000813F08D0E90506D5226C42F0020222640A
:101B30006FF400725A6116F4823F36D0EA0534D54C
:101B400094F83E70618D94F83D20206B202F89B26F
:101B5000D2B258D1002956D102F0F701212903D081
:101B6000282A50D121284ED194F83D20E16A042939
:101B7000D2B201D008292CD1282A2AD12B4AE262DC
:101B80005A6822F4E0625A606FF480625A611A68FF
:101B900022F480621A60002320222363204684F806
:101BA0003D2084F83E30FFF7A6FB16F4843F09D0B1
:101BB000EB0507D5236C43F00803236423686FF417
:101BC00000625A61236C73B32046BDE8F840FFF70A
:101BD00097BB212A23D11549E1622263202284F890
:101BE0003D20002284F83E205A6822F4E0625A60C8
:101BF0006FF480625A611A6822F480621A6020468B
:101C0000FFF776FBD1E7226C42F00402226494F8DD
:101C10003E20102A02BF1A6842F400721A606FF464
:101C200080625A61C1E7F8BD000101000000FFFFBA
:101C3000806B08B50368416B1A6822F480621A60F1
:101C4000002242850A65816B0A6590F83D10602983
:101C50004FF0200180F83D1080F83E2007D102644B
:101C60001A6822F001021A60FFF749FB08BD1A68E2
:101C700022F001021A60FFF741FB08BD2DE9F34194
:101C8000044618B9012002B0BDE8F0810368DD0701
:101C900010D42368980758D423681A0700F19A8053
:101CA00023685B0700F1B880A269002A40F019811F
:101CB0000020E8E7A64B9A6802F00C02042A07D03D
:101CC0009A6802F00C02082A0AD15B68590207D50B
:101CD0009F4B1B689A03DCD56368002BD9D1D1E7F1
:101CE00063689B4DB3F5803F11D12B6843F480337B
:101CF0002B60FFF711F9964D06462B689B03C8D45D
:101D0000FFF70AF9801B6428F7D90320BBE7B3F576
:101D1000A02F04D12B6843F480232B60E5E72A68C9
:101D200022F480322A602A6822F480222A60002B62
:101D3000DFD1FFF7F1F806462B689F03A9D5FFF71F
:101D4000EBF8801B6428F7D9DFE7814B9A6812F023
:101D50000C0F07D09A6802F00C02082A11D15B68B8
:101D60005E020ED47A4B1A68950702D5E268012A02
:101D700088D11A68216922F0F80242EAC1021A6089
:101D80008AE7E268734BB2B101221A60FFF7C4F828
:101D90006F4D06462B68980707D52B68226923F0FC
:101DA000F80343EAC2032B6076E7FFF7B5F8801B20
:101DB0000228EFD9A9E71A60FFF7AEF8644D06468E
:101DC0002B6899077FF568AFFFF7A6F8801B0228FC
:101DD000F6D99AE76269604B7AB101221A60FFF77F
:101DE0009BF85B4D06466B6F9F073FF559AFFFF7BA
:101DF00093F8801B0228F6D987E71A60FFF78CF862
:101E0000534D06466B6F98077FF54AAFFFF784F88E
:101E1000801B0228F6D978E74D4B1A6C12F08052DD
:101E200028D101921A6C42F080521A641B6C03F0A4
:101E300080530193019B0126484D2B68D9051BD582
:101E4000A368434D012B27D12B6F43F001032B6770
:101E5000FFF762F83E4D074641F288382B6F9B072B
:101E600039D5002E3FF420AF394A136C23F080534C
:101E7000136419E70026DFE72B6843F480732B60B7
:101E8000FFF74AF807462B68DA05D9D4FFF744F87C
:101E9000C01B0228F7D938E7052B04D12B6F43F07C
:101EA00004032B67D0E72A6F22F001022A672A6F0A
:101EB00022F004022A67002BCAD1FFF72DF841F265
:101EC000883807462B6F9807CBD5FFF725F8C01B3E
:101ED0004045F7D919E7FFF71FF8C01B4045BDD9AA
:101EE00013E71B4DAB6803F00C03082B3FF4CAAE9D
:101EF0001B4E0023022A336034D1FFF70DF807464A
:101F00002B6899011ED4226AE3691343626A43EA8B
:101F10008213E26A43EA0263A26A0D4C5208013A54
:101F200043EA02436B6001233360FEF7F5FF054689
:101F300023689A013FF5BCAEFEF7EEFF401B022876
:101F4000F6D9E2E6FEF7E8FFC01B0228D8D9DCE6A6
:101F50000038024000004742800E474200700040B7
:101F600060004742FEF7D8FF04462B689B017FF5CF
:101F70009FAEFEF7D1FF001B0228F6D9C5E600BFD1
:101F8000134908B58B6803F00C03042B03D0082B0E
:101F900003D0104808BD104808BD4A684B6849681E
:101FA00013F4800314BF0C480A48C1F3881118BF0A
:101FB000002302F03F02A1FB0001FEF7DBFD044B12
:101FC0005B68C3F3014301335B00B0FBF3F008BD72
:101FD000003802400024F40040787D012DE9F041F2
:101FE0000D46044610B90120BDE8F081444B1A6843
:101FF00002F00F028A4228D321688F072DD4C80728
:1020000040D43F4B1A6802F00F02954266D3226813
:1020100051076CD4130707D53A4A2169936823F412
:10202000604343EAC1039360FFF7AAFF354B364A8A
:102030009B68C3F30313D35CD840344B1860002073
:10204000FEF720FF0020BDE8F081CAB21A701B68BD
:1020500003F00F039942C6D1CEE72A4B11F0040FCB
:102060001EBF9A6842F4E0529A600E0742BF9A6817
:1020700042F460429A609A68A06822F0F00202433B
:102080009A60BCE762681F4B012A1DD11B6813F4DC
:10209000003FA8D01B4EB36823F003031343B36083
:1020A000FEF73AFF41F288380746B368626803F0EA
:1020B0000C03B3EB820FA4D0FEF72EFFC01B4045EC
:1020C000F3D90320BDE8F081911E01291B6802D8D5
:1020D00013F0007FDDE713F0020FDAE7EAB21A70BF
:1020E0001B6803F00F039D427FF47DAF8FE7054926
:1020F000E0688B6823F4E05303438B608AE700BFFA
:10210000003C024000380240015900080C00002049
:10211000044B054A9B68C3F38223D35C034A1068CF
:10212000D840704700380240115900080C000020C8
:10213000044B054A9B68C3F34233D35C034A1068DF
:10214000D840704700380240115900080C000020A8
:10215000036A23F001030362036A426870B584696D
:102160000D6824F0730425438C6823F00203234395
:102170000C4CA04209D004F58064A04205D0426016
:102180004A6885614263036270BDCC688E6923F042
:10219000080323434C6922F44072344323F00403C0
:1021A0002243ECE700000140036A23F480730362DA
:1021B000036A426870B5C4690D6824F0730425434E
:1021C0008C6823F4007343EA04230E4CA04209D028
:1021D00004F58064A04205D042604A68C561C263CC
:1021E000036270BDCC688E6923F4006343EA042364
:1021F0004C6922F44052344323F4806342EA0412CF
:10220000EAE700BF00000140036A23F48053036241
:1022100030B5046A4368C2690D6822F4E64242EAB6
:1022200005228D6824F4005444EA0534094DA8427F
:1022300009D005F58065A84205D043604B68C261AE
:102240000364046230BD4D6923F4804343EA85137F
:10225000F3E700BF000001400268022380F8393034
:10226000136843F001031360012380F83930002024
:1022700070470368DA6842F00102DA601A6842F0D7
:1022800001021A60002070470368DA6822F0010238
:10229000DA60196A41F21112114208D1196A40F24A
:1022A0004442114202BF1A6822F001021A60002063
:1022B00070477047704790F83830012B70B54FF079
:1022C00002031CD080F839300368012280F83820DE
:1022D0009A6822F47F4222F077029A600A68402AC4
:1022E00079D019D8102A00F093800AD8002A00F07B
:1022F0008980012380F83930002380F8383018466F
:1023000070BD202A00F08A80302AF2D19A6822F02B
:10231000700242F0370236E0702A36D01BD8502ABD
:1023200042D0602AE5D11C6A4D68CE6824F01004C2
:102330001C6299691A6A21F4704122F0A00242EAF3
:10234000051241EA063199611A629A6822F0700218
:1023500042F0670217E0B2F5805F11D0B2F5005F7E
:10236000C7D18A684D689C68C9682A4324F47F44B1
:1023700042EA012222439A609A6842F4804202E0D3
:102380009A6822F007029A60B3E78A684D689C68F1
:10239000C9682A4324F47F4442EA012222439A6016
:1023A0009A6842F07702EEE74C68CE68196A1D6AB7
:1023B00025F001051D629A6921F00A0122F0F00260
:1023C00042EA061221439A6119629A6822F0700269
:1023D00042F05702D7E74C68CE68196A1D6A25F0AB
:1023E00001051D629A6921F00A0122F0F00242EA19
:1023F000061221439A6119629A6822F0700242F033
:102400004702C0E79A6822F0700242F00702BAE77A
:102410009A6822F0700242F01702B4E79A6822F03C
:10242000700242F02702AEE770477047704770476E
:10243000704703681A69910710B504460ED5DA682B
:1024400092070BD56FF002021A619B6901229B076C
:10245000027677D0FFF7EAFF0023237623681A6914
:10246000500710D5DA6851070DD56FF004021A61D4
:102470009B69022213F4407F2276204668D0FFF742
:10248000D5FF0023237623681A6912070FD5DA686F
:1024900010070CD56FF008021A61DB690422990756
:1024A000227620465AD0FFF7C1FF00232376236807
:1024B0001A69D20610D5DA68D0060DD56FF0100271
:1024C0001A61DB69082213F4407F227620464BD044
:1024D000FFF7ACFF0023237623681A69D10708D5DC
:1024E000DA68D20705D56FF001021A612046FFF7BE
:1024F0009BFF23681A69100608D5DA68110605D50E
:102500006FF080021A61204600F05FFA23681A69B2
:10251000520608D5DA68500605D56FF040021A61F8
:102520002046FFF785FF23681A69910622D5DA68ED
:1025300092061FD56FF0200220461A61BDE81040B8
:1025400000F042BAFFF771FF2046FFF770FF83E704
:10255000FFF76BFF2046FFF76AFF92E7FFF765FF83
:102560002046FFF764FFA0E7FFF75FFF2046FFF775
:102570005EFFAFE710BD00002E4A0368904212D004
:10258000B0F1804F0FD0A2F57C4290420BD002F503
:102590008062904207D002F58062904203D002F53B
:1025A000784290421DD14A6823F070031343214AB8
:1025B000904204D1CA6823F44073134328E0B0F179
:1025C000804FF7D01C4A9042F4D002F580629042CE
:1025D000F0D002F580629042ECD002F57842904251
:1025E000E8D0164A9042E5D002F580629042E1D0F0
:1025F00002F580629042DDD0A2F598329042D9D0A7
:1026000002F580629042D5D002F580629042D1D02E
:1026100003608B68C3620B688362064B984206D0E6
:1026200003F58063984202D00123436170470B6930
:102630000363F9E70000014000040040004001404E
:1026400010B50446A0B190F8393003F0FF021BB971
:1026500080F8382001F00CFA022384F83930206821
:10266000211DFFF789FF012384F83930002010BDB8
:10267000012010BD10B50446A0B190F8393003F028
:10268000FF021BB980F83820FFF713FE022384F8FD
:1026900039302068211DFFF76FFF012384F839309E
:1026A000002010BD012010BD10B50446A0B190F867
:1026B000393003F0FF021BB980F83820FFF7FAFD2C
:1026C000022384F839302068211DFFF755FF0123CC
:1026D00084F83930002010BD012010BD036A23F0BA
:1026E00010030362036A426870B584690D6824F4BC
:1026F000E64444EA05258C6823F0200343EA0413EA
:102700000D4CA04209D004F58064A04205D042607F
:102710004A6885618263036270BDCC688E6923F06C
:10272000800343EA04134C6922F44062344323F0EB
:10273000400342EA8402EAE70000014038B590F81D
:102740003830012B04464FF0020018D0012384F8E2
:10275000383084F839001D460C2A0BD8DFE802F027
:10276000070A0A0A100A0A0A140A0A0A1800206844
:10277000FFF7EEFC002084F8395084F8380038BDAB
:102780002068FFF7ABFFF5E72068FFF70DFDF1E7E5
:102790002068FFF739FDEDE738B590F83830012BA8
:1027A00004464FF0020025D0012384F8383084F825
:1027B00039000C2A18D8DFE802F0071717171E1780
:1027C00017172F17171740002068FFF7C1FC236861
:1027D00009699A6942F008029A619A6922F0040232
:1027E0009A619A690A439A610123002084F839307A
:1027F00084F8380038BD2068FFF770FF2368096946
:102800009A6942F400629A619A6922F480629A613C
:102810009A6942EA0122E6E72068FFF7C5FC2368CF
:102820000969DA6942F00802DA61DA6922F0040221
:10283000DA61DA690A43DA61D6E72068FFF7E4FC77
:1028400023680969DA6942F40062DA61DA6922F41C
:102850008062DA61DA6942EA0122ECE7036A10B5C4
:1028600001248C4023EA04030362036A8A401A436A
:10287000026210BD10B504460C290DD8DFE801F046
:10288000070C0C0C220C0C0C270C0C0C2C000268F6
:10289000D36843F00203D36001222068FFF7DEFF14
:1028A0002368104A934203D002F58062934203D119
:1028B0005A6C42F400425A641A6842F001021A60EB
:1028C000002010BD0268D36843F00403E3E7026808
:1028D000D36843F00803DEE70268D36843F01003CF
:1028E000D9E700BF0000014010B504460C290DD8FF
:1028F000DFE801F0070C0C0C360C0C0C3B0C0C0C3C
:1029000040000268D36823F00203D36000222068ED
:10291000FFF7A4FF23681A4A934203D002F58062AE
:1029200093420DD1196A41F21112114208D1196A6C
:1029300040F24442114202BF5A6C22F400425A64EF
:10294000196A41F21112114208D1196A40F2444247
:10295000114203D11A6822F001021A60002010BD52
:102960000268D36823F00403CFE70268D36823F03A
:102970000803CAE70268D36823F01003C5E700BF65
:102980000000014090F83830012B10B54FF00203E1
:1029900018D080F8393003680C685A68496822F00A
:1029A00070025A605A6822435A609A6822F0800284
:1029B0009A609A680A439A60012380F839300023AC
:1029C00080F83830184610BD704770470368DA68E1
:1029D00022F49072DA605A6922F001025A612023CF
:1029E00080F83A30704700002DE9F0470668C26869
:1029F0003369C16923F44053134333610446836848
:102A00000069F2680343606922F41642034322F02E
:102A10000C020B431343F3607369A26923F4407300
:102A20001343B1F5004F73617A4B7CD19E4203D0C2
:102A300003F580639E4244D1FFF77AFB192505FB1D
:102A400000F360684FF064094000B3FBF0F3B3FBA0
:102A5000F9F34FEA0318FFF76BFB636868435B0009
:102A6000B0FBF3F7FFF764FB636868435B00B0FB00
:102A7000F3F3B3FBF9F309FB1373DB003233B3FB5E
:102A8000F9F35B0003F4F877FFF752FB62686843E1
:102A90005200B0FBF2FAFFF74BFB636868435B0040
:102AA000B0FBF3F3B3FBF9F309FB13A3DB00323301
:102AB000B3FBF9F303F0070343443B44B360BDE8C1
:102AC000F087FFF725FB192505FB00F360684FF041
:102AD00064094000B3FBF0F3B3FBF9F34FEA0318CA
:102AE000FFF716FB636868435B00B0FBF3F7FFF783
:102AF0000FFB636868435B00B0FBF3F3B3FBF9F3D0
:102B000009FB1373DB003233B3FBF9F35B0003F40F
:102B1000F877FFF7FDFA626868435200B0FBF2FAFB
:102B2000FFF7F6FAB9E79E4202D03B4B9E4240D1F6
:102B3000FFF7FEFA676819254FF0640905FB00F3FB
:102B4000BF00B3FBF7F3B3FBF9F31F01FFF7F0FA94
:102B5000636868439B00B0FBF3F8FFF7E9FA63682A
:102B600068439B00B0FBF3F3B3FBF9F309FB13835A
:102B70001B013233B3FBF9F303F0F008FFF7D8FA87
:102B8000626868439200B0FBF2FAFFF7D1FA63681B
:102B900068439B00B0FBF3F3B3FBF9F309FB13A30A
:102BA0001B013233B3FBF9F303F00F0343EA0803CD
:102BB00083E7FFF7ADFA676819254FF0640905FB55
:102BC00000F3BF00B3FBF7F3B3FBF9F31F01FFF70B
:102BD0009FFA636868439B00B0FBF3F8FFF798FA2D
:102BE000636868439B00B0FBF3F3B3FBF9F309FBA5
:102BF00013831B013233B3FBF9F303F0F008FFF743
:102C000087FA626868439200B0FBF2FAFFF780FA35
:102C1000BDE700BF0010014000140140F8B50446B4
:102C20000E4617461D4621680B6836EA030301D19C
:102C30000020F8BD6B1CF7D095B92368DA6822F440
:102C4000D072DA605A6922F001025A61202384F8B6
:102C5000393084F83A30002384F838300320F8BD46
:102C6000FEF75AF9C01B8542DDD2E6E710B50446EF
:102C700040B390F8393003F0FF021BB980F83820D8
:102C800000F06CFF2268242384F83930D36823F4E1
:102C90000053D3602046FFF7A7FE23681A6922F489
:102CA00090421A615A6922F02A025A61DA6842F4A3
:102CB0000052DA6000202023E06384F8393084F881
:102CC0003A3010BD012010BD2DE9F0411F4690F8AB
:102CD0003930202B04460D4690464FD100294AD06A
:102CE000002A48D090F83830012B47D0012380F8D3
:102CF00038300023C363212380F83930FEF70CF904
:102D0000A4F824800646A4F82680E38C9BB26BB915
:102D10003B46324640212046FFF780FFB0B92023D2
:102D200084F8393084F83800BDE8F081E38C013B49
:102D30009BB2E384A368B3F5805F32463B464FF015
:102D4000800120460ED1FFF769FF10B10320BDE8D6
:102D5000F0812B882268C3F308035360236943B9C9
:102D60000235D2E7FFF75AFF0028EFD123682A780F
:102D70005A600135C9E70120BDE8F0810220BDE8B5
:102D8000F08190F83A30202B1CD1C9B1C2B190F833
:102D90003830012B16D0C285828500232222C363DE
:102DA00080F83A2002688162516980F8383041F039
:102DB00001015161D16841F49071D16018467047AA
:102DC00001207047022070477047704790F83A30F2
:102DD000222B10B532D1836801690268B3F5805F98
:102DE000836A1FD15268C9B9C2F3080223F8022BC3
:102DF0008362C48D013CA4B2C4856CB90368DA68EF
:102E000022F49072DA605A6922F001025A6120239A
:102E100080F83A30FFF7D9FF002010BDD2B223F876
:102E2000012BE5E721B9591C526881621A70E0E76D
:102E30005268591C816202F07F02F7E7022010BD40
:102E40007047000003681A68D96870B51607044611
:102E50005D6907D196065AD58D0658D5BDE87040F4
:102E6000FFF7B4BF15F0010502D111F4907F4ED0E9
:102E7000D30705D5CE0542BFE36B43F00103E363FF
:102E8000500704D51DB1E36B43F00203E3639307DE
:102E900004D51DB1E36B43F00403E363160704D5C7
:102EA0001DB1E36B43F00803E363E36B002B66D0D3
:102EB000950604D5880602D52046FFF787FF2368CC
:102EC0005D69E26B1107204602D415F040051AD067
:102ED000FFF77CFD23685A69520610D55A69606B6A
:102EE00022F040025A6150B1254B0365FEF782F88B
:102EF000002844D0606BBDE87040036D1847204641
:102F0000FFF79EFF70BDFFF79BFFE56370BD1606E0
:102F100027D50D0625D594F83920212A2FD1A2686E
:102F2000B2F5805F226A17D11188C1F30801596098
:102F3000216979B902322262E28C013A92B2E284CA
:102F4000EAB9DA6822F08002DA60DA6842F0400218
:102F5000DA6070BD0132EEE7511C216212785A60CE
:102F6000EAE750060BD54A0609D5DA6822F0400296
:102F7000DA60202384F839302046FFF725FF70BD42
:102F8000852F000808B5806B0023C385C384FFF735
:102F900057FF08BD10B594B03022002108A800F0FA
:102FA000EDFF0021142203A800F0E8FF0024164BD7
:102FB00001941A6C42F080521A641B6C03F0805327
:102FC0000193019B114B02941A6842F480421A60EB
:102FD0001B680E9403F480430293029B0223089320
:102FE00001230B9308A810230C93FEF747FE0F2331
:102FF000214603A803930494059406940794FEF7CE
:10300000EDFF14B010BD00BF00380240007000405A
:103010003F4B9FED407AD3ED007A67EE877AF2EE70
:10302000046A87EEA67A70B53B4E3C4CFDEEC77A3B
:1030300017EE900AFDF776FA33A3D3E90023FDF7E4
:1030400001FC02460B4600203549FDF7FBFBFDF76E
:1030500069FD344BD8623368022290FBF2F0012202
:10306000586311463048FEF7BDF8012210212F4861
:10307000FEF7B8F84FF400712D48FEF7ADF80128BF
:103080000CD100252B4B2060294630461D60FFF7F0
:10309000F1FB2A4610212548FEF7A4F84FF4005111
:1030A0002148FEF799F80128054609D100211A4860
:1030B0002160FFF7DFFB2A4610211C48FEF792F83B
:1030C0002368042B1DD100211348FFF70DFC124883
:1030D000FFF7DAF81848FFF7D7F8164B1A68174BBE
:1030E0001B689A420ADD002210211048FEF77AF888
:1030F00000210948BDE87040FFF7BCBBF8DA0122A7
:10310000F2E770BDAFF300800000000080846E41E4
:103110000800002000409C45C010002090000020C6
:103120000000F03F00080040000402400008024098
:10313000000C024094000020002100209C00002090
:103140002DE9F74F80460846FDF7ECF904464FEAB3
:1031500048000D46FDF7E6F987A3D3E90023FDF704
:1031600047FA22462B46FDF743FA85A3D3E900230D
:1031700006460F4620462946FDF73AFA6E4DDFF81F
:103180000892CDE9000100244FF4FA7AAB462046BC
:10319000FDF7C8F9DDE90023FDF72AFA60A3D3E9BA
:1031A0000023FDF725FA41EC100B01F00DFB304632
:1031B00053EC102B3946FDF71BFAFDF7B3FC49F829
:1031C000240059F824300AFB03F345F82430013475
:1031D000B4F57A7FDBD1594E4FF0FF3537464FF6C5
:1031E000FF7A40F2E7396C1C5BF82400FDF79AF98E
:1031F0004DA3D3E90023FDF725FB0B4602465049BA
:103200000020FDF71FFBFDF78DFC46F8240056F863
:103210002430002BB8BF5B42B3F5803F05DB56F886
:103220002530002BC8BF46F824A057F82430002BC7
:10323000B8BF5B42B3F5803F06DB57F82530002B63
:10324000BCBF404B47F824304C452546CBD13E4BC4
:103250001868FDF767F9044640460D46FDF762F928
:1032600000223A4BFDF7C4F931A3D3E90023FDF75F
:10327000BFF90022364BFDF7E5FA02460B46204621
:103280002946FDF701F8FDF74DFC324B9FED327AF0
:103290001860324BD3ED007A67EE877AF2EE046A5B
:1032A00087EEA67A0446FDEEC77A17EE900AFDF780
:1032B00039F91DA3D3E90023FDF7C4FA02460B46F2
:1032C00000201F49FDF7BEFAFDF72CFC244BD86205
:1032D000244B1B68022290FBF2F05863224B1B68C0
:1032E0009C4214DA002210212048FDF77BFF0422C3
:1032F0001F4B1A6000211B48FFF7BCFA1948FEF764
:10330000B8FF1C4803B0BDE8F04FFEF7B2BF01DDC7
:103310000122E8E7EED10522EAE700BFAFF3008023
:10332000FCA9F1D24D62503F0000000080846E4144
:10333000000000000088B340601100204021002000
:103340000000F03F0100FFFF980000200000E03F78
:10335000000024409C00002000409C450800002004
:1033600000080040C0100020940000200008024027
:103370009000002000210020182D4454FB2109401A
:10338000182D4454FB211940EC00002000000000DF
:10339000F0B501FB00F30646022093FBF0F34FF477
:1033A000FA708FB058430C46FDF7BCF829A3D3E957
:1033B0000023FDF747FA02460B4600201E49FDF7A1
:1033C00041FAFDF7AFFB07466000FDF7ABF8024698
:1033D0000B4600201949FDF735FAFDF7A3FB2346FC
:1033E00032461749054601A800F0D0FD01A8FCF7B8
:1033F000EFFEC82382B201A91248FFF765FC12480C
:103400000023012293FBF5F105FB113101B9524272
:1034100007FB02F140F823100133B3F57A7FF1D1B5
:103420000A4B0B48032200211A60FFF723FA0FB062
:10343000F0BD00BFAFF300800000F03F00408F40C0
:10344000C558000834500020402100209000002082
:10345000C01000200000000080846E41F0B5614D76
:103460002B681B6899068FB035D55F4C0D2221461D
:103470002846FFF786FC2B685B6823783A2B2AD115
:103480006378742B27D0732B32D1E378A678217A16
:10349000E279A3F130004FF47A734343303E42F2B5
:1034A000107000FB063320794FF0640E30380EFBAD
:1034B000003063790A2730397943303A303B0EFBCC
:1034C000021207FB0303617AA079303930381144C6
:1034D0001844FFF735FE2B681A68120706D500223C
:1034E00001921A6801925B680193019B0FB0F0BDD5
:1034F000632B36D1E678A278A6F130034FF47A76C2
:103500005E43303A42F2107303FB02622679A379DC
:103510006420303E00FB062266790A21303E01FB22
:103520000626303B227A1E44E379647A303A5143CE
:10353000303B00FB0313303C1C44234632462B49EE
:1035400001A800F023FD21463046FFF721FF01A826
:10355000FCF73EFEC82382B201A92846FFF7B4FB60
:10356000B9E7682B05D1FFF753FD214B00221A6004
:10357000B1E7762BAFD1C8230A221E491E4F284639
:10358000FFF7A2FB00242E46C8230B221B4930461E
:10359000FFF79AFB2246394601A800F0F7FCC82342
:1035A00082B201A93046FFF78FFBC82303221449DA
:1035B0003046FFF789FB134B394653F8242001A806
:1035C00000F0E4FCC82382B201A93046FFF77CFB7F
:1035D0000134C82302220C493046FFF775FB642CE6
:1035E000D2D178E734500020FC1000208858000821
:1035F00090000020A4580008BB580008AF580008ED
:10360000BE58000840210020C25800082DE9F047AC
:10361000B54BB64EDFF8149300241C70B44B92B037
:103620001C70FDF753FCFFF7B5FC214614220BA8D4
:1036300000F0A4FCAF4B01941A6BAF4842F00402B7
:103640001A631A6B02F004020192019A02941A6B37
:1036500042F001021A631A6B02F001020292029A0E
:1036600003941A6B42F002021A631A6B02F0020210
:103670000392039A04941A6B42F008021A631B6BBC
:1036800003F00803224604931521049BFDF7AAFDCD
:10369000224639219948FDF7A5FD22464CF28801C2
:1036A0009748FDF79FFD4FF0010815230BA992489D
:1036B0000B930D940E94CDF83080FDF7ADFC0BA963
:1036C00090480C960D94CDF82C80FDF7A5FC39237D
:1036D0000BA98A480B9302250D940E94CDF83080E7
:1036E000FDF79AFC4FF400530BA984480B930C96FA
:1036F0000D95FDF791FC4FF400730BA980480B93D7
:103700000C960D95FDF788FC44F288030BA97C48C4
:103710000B930D940E94CDF83080FDF77DFC4FF4A3
:1037200000430BA976480B930D950E94CDF830808D
:10373000FDF772FC224621460620FDF705FC062017
:10374000FDF736FC224621461720FDF7FDFB17202A
:10375000FDF72EFC224621462820FDF7F5FB282008
:10376000694D6A4EFDF724FC2146102207A800F09F
:1037700005FC1C2221460BA84FF0C80A05940694AC
:1037800000F0FCFB2846AC602C614FF48057C5F874
:103790000090C5F80480C5F80CA0FEF751FF07A9FA
:1037A00028460797FEF787FD2846FEF77DFF284647
:1037B000FEF760FF05A9284605940694FFF7E2F896
:1037C000602322460BA928460B930C940D940F946A
:1037D000FEF7E2FF0BA9042228460B94FEF7AEFF8A
:1037E00042F21073C9F82C302B6841F288325A63C8
:1037F000284600F073F92146102207A800F0BEFB0E
:1038000021461C220BA80594069400F0B7FB404A01
:10381000B4604FF4C86386E80C0030460923F360B7
:103820003461FEF70DFF07A930460797FEF743FD09
:103830003046FEF71FFF05A9304605940694FFF7B2
:10384000A1F822460BA93046324F0B940C940D94EC
:103850000F94FEF773FF3049BC604FF4E13387E803
:103860000A0038460C23FC603C617B61BC61FC6152
:10387000FFF7FCF92948DFF8B8E0294B846080E8BD
:1038800008404FF480430361C46044618461C461B3
:103890000462FDF7BDFC3046FEF7EBFC3046FEF758
:1038A000DBFC21462846FEF7E5FF534603221D496F
:1038B0001D4C124E3846FFF707FA424641460F4864
:1038C000FDF790FC424610210B48FDF78BFC2B685E
:1038D000C9F82CA064225A632546236853B3033BDE
:1038E000022B29D826E000BF3C2100200000111047
:1038F00074500020003802400008024000040240DA
:10390000000C024000000240C010002000210020F6
:103910000004004034500020004400400C110020FE
:1039200000580040E45800089000002000080040C3
:10393000A0860100FFF792FD2B68033B022BCCD839
:103940004FF400710948FDF747FC012805D100211B
:1039500007482960FEF7C8FFBFE74FF40051304623
:10396000FDF73AFC0128B8D1F1E700BF000C024096
:10397000C010002008B54FF400710348FDF72CFC7F
:10398000003018BF012008BD000C024008B54FF4FC
:1039900000510348FDF720FC003018BF012008BD8E
:1039A0000004024082B00C4B002100915A6C42F49A
:1039B00080425A645A6C02F480420092009A01914B
:1039C0001A6C42F080521A641B6C03F0805301930E
:1039D000019B02B0704700BF0038024030B504467A
:1039E00089B01422002103A800F0C8FA22681D4BF8
:1039F0009A4234D100251C4C0195236B1B4843F09F
:103A000002032363236B03F002030193019B4FF432
:103A10004063039312230493012305930323069326
:103A200003A904230793FDF7F7FA0295236C43F4E7
:103A300080032364236C03F480032A4629460293FF
:103A40002120029BFDF780FA2120FDF7B1FA222008
:103A50002A462946FDF778FA2220FDF7A9FA09B08F
:103A600030BD00BF00580040003802400004024052
:103A700007B50368164A934215D10022154B0092F0
:103A8000196C41F0020119641B6C03F002030093EE
:103A90001D201146009BFDF757FA1D20FDF788FAFF
:103AA00003B05DF804FB0C4A9342F9D10022094BA4
:103AB0000192196C41F0040119641B6C03F00403BA
:103AC00001931E201146019BFDF73EFA1E20E5E7FB
:103AD00000040040003802400008004030B50446B1
:103AE00089B01422002103A800F048FA2268184B7C
:103AF0009A422AD103F50C33002501951A6B15481B
:103B000042F008021A631A6B02F008020192019A4D
:103B100002951A6B42F002021A631B6B03F0020358
:103B200002930224029B04944FF4005303A90393CD
:103B30000794FDF771FA402303A9074803930494FF
:103B4000059506950794FDF767FA09B030BD00BFEB
:103B500000080040000C02400004024010B504467A
:103B600088B01422002103A800F008FA2268194B3B
:103B70009A422CD103F5FA33002401941A6C1648AA
:103B800042F400321A641A6C02F400320192019A73
:103B900002941A6B42F001021A631B6B03F00103DB
:103BA0000293029B0C2303930223049301230593A6
:103BB0000323069303A907230793FDF72DFA262075
:103BC00022462146FDF7C0F92620FDF7F1F908B09D
:103BD00010BD00BF00440040000002407047FEE7F7
:103BE000FEE7FEE7FEE7704770477047FDF788B9CC
:103BF00008B50120FDF700FB01210648FDF7F7FAA3
:103C0000C823092204490548FFF75EF8044B002247
:103C10001A6008BD00040240E85800083450002033
:103C20009000002010B54FF40070FDF7E5FAFFF7A3
:103C3000A1FEE0B10E4C2368012B0DD80D4B0E48B0
:103C4000002210211A60FDF7CDFA4FF400410B4815
:103C5000FDF7CDFA012323602368012B07D9002249
:103C6000226001210648BDE81040FDF7BBBA10BD37
:103C7000900000209400002000080240000C024048
:103C80000004024038B5214B1B68052B39D1204C6C
:103C9000204D23682048B3F57A7FA4BF002323601A
:103CA000236855F82330002BB4BF002201221021D5
:103CB000FDF798FA4FF400411848FDF798FA184BB1
:103CC00022681968174B43F82210174A2168174BCE
:103CD000D06A43F82100002353622368022155F87B
:103CE000233093FBF1F3002BB8BF5B42536323688F
:103CF00055F82330002BB8BF5B42D36223680133F1
:103D000023600B48BDE83840FEF793BB90000020CD
:103D1000A40000204021002000080240000C0240C6
:103D200094000020E03000200008004028600020BF
:103D30000021002010B510212548FDF74DFA18B9D3
:103D4000244A1368013B136010212148224CFDF7DF
:103D500043FA012801BF1F4A136801331360236827
:103D6000022B17D11D4B1A681A4B1B689A4211D1AE
:103D70001B48FEF789FA00211A48FEF7B5FD1948DD
:103D8000FEF782FA032323600E22C8231649174840
:103D9000FEF79AFF2368042B10D1154B1A680D4BC0
:103DA0001B689A420AD1134B0F49104800221A602F
:103DB000052323600E22C823FEF786FF0E484FF42A
:103DC0000041FDF714FA0748BDE81040FEF731BB8B
:103DD000000802409400002090000020980000207D
:103DE00000210020C0100020F258000834500020AC
:103DF0009C000020A4000020000C02400148FDF7B8
:103E000013BB00BF0C1100200148FDF777BE00BFB7
:103E10000C1100200148FFF715B800BF34500020F6
:103E200038B54FF40050FDF7E7F9FFF7AFFD10B3D9
:103E3000114C2268012A12D1104B11491B680B60EA
:103E400010491148022593FBF5F30B601021FDF793
:103E5000C9F94FF480410D48FDF7C9F92560236881
:103E6000033B032B07D80022226001210848BDE84C
:103E70003840FDF7B7B938BD90000020940000200D
:103E8000A00000209800002000080240000C024022
:103E9000000402400F49D1F8883043F47003C1F8A0
:103EA00088300D4B1A68002042F001021A609860B9
:103EB0001A6822F0847222F480321A60074A5A602B
:103EC0001A6822F480221A60D8604FF000638B6079
:103ED000704700BF00ED00E00038024010300024C1
:103EE000DFF834D0002103E00C4B5B584350043121
:103EF0000B480C4B42189A42F6D30B4A02E00023BF
:103F000042F8043B094B9A42F9D3FFF7C3FF00F094
:103F100011F8FFF77BFB704700000220385B0008B8
:103F2000000000207400002074000020D06F0020EA
:103F3000FEE7000070B50D4E0D4CA41BA41000252B
:103F4000A54209D10B4E0C4C01F090FCA41BA4100F
:103F50000025A54205D170BD56F82530984701359A
:103F6000EEE756F8253098470135F2E7305B000858
:103F7000305B0008305B0008345B000802440346F5
:103F8000934200D1704703F8011BF9E70EB400B566
:103F90009CB04FF402711DABADF814100290069066
:103FA0006FF000410A48049107914FF6FF7153F8F2
:103FB000042BADF816100068019302A900F066F812
:103FC000029B00221A701CB05DF804EB03B070472E
:103FD000100000202DE9F0478E689E4282460C4674
:103FE0009146984635D88A8912F4906F31D0256869
:103FF00009696F1A6569022305EB450595FBF3F521
:1040000008F101033B449D4238BF1D46530531D59D
:10401000294600F039FB064650B90C23CAF8003097
:10402000A38943F04003A3814FF0FF30BDE8F08740
:104030003A46216900F0B4FAA38923F4906343F06F
:104040008003A381266165613E44ED1B2660A56067
:104050004646464528BF464632464946206800F057
:10406000AAFAA3689B1BA36023681E442660002055
:10407000BDE8F0872A4600F065FB06460028E1D13E
:104080002169504600F0B2FAC7E700002DE9F04F71
:104090009DB0804603938B891C060D4616460FD5AE
:1040A0000B696BB9402100F0EFFA2860286128B94C
:1040B0000C23C8F800304FF0FF30C5E040236B619F
:1040C0000023099320238DF8293030238DF82A30DE
:1040D0004FF0010B37463C4614F8013B002B3CD116
:1040E000B7EB060A0BD05346324629464046FFF747
:1040F00071FF013000F0A380099B534409933B7882
:10410000002B00F09C8000234FF0FF3204930793B4
:10411000059206938DF853301A9305222178504862
:10412000FCF75EF8671C049BD8B9D90644BF20226F
:104130008DF853201A0744BF2B228DF85320227884
:104140002A2A16D0079A00210A20274601343B78F4
:10415000303B092B51D9C9B111E0252BC0D02746DE
:10416000B9E73F4A801A0BFA00F0184304903C4626
:10417000D3E7039A111D12680391002A01DB07920D
:1041800004E0524243F00203079204933B782E2B43
:104190000ED17B782A2B07F1010132D1039B1A1D26
:1041A0001B680392002BB8BF4FF0FF330237059313
:1041B0002C4C397803222046FCF712F838B1402302
:1041C000001B03FA00F0049B034304930137397882
:1041D00025488DF8281006227E1CFCF701F80028DF
:1041E00035D0224BFBB9039B073323F00703083379
:1041F0000393099B4B4409936CE700FB02320121B6
:10420000A3E70023059318460A240F4601313A78A4
:10421000303A092A03D9002BCAD00590C8E704FB1D
:1042200000200123F1E703AB00932A46104B04A9B9
:104230004046AFF30080B0F1FF3F8146D9D1AB8952
:104240005B063FF538AF09981DB0BDE8F08F03ABB2
:1042500000932A46064B04A9404600F081F8EAE79D
:10426000195900081F5900082359000800000000D0
:10427000D53F00082DE9F04791461F468A680B6933
:10428000DDF820809342B8BF1346C9F8003091F89A
:10429000432006460C4612B10133C9F800302368AA
:1042A000990642BFD9F800300233C9F800302568BA
:1042B00015F0060507D104F1190AE368D9F80020C2
:1042C0009B1A9D4229DB94F843302268003318BFC3
:1042D000012392062ED404F1430239463046C047EA
:1042E000013021D02368E568D9F8002003F00603E7
:1042F000042B08BFAD1AA36822690CBF25EAE57537
:1043000000259342C4BF9B1AED184FF000091A34E0
:104310004D451BD10020BDE8F087012352463946A8
:104320003046C047013003D14FF0FF30BDE8F08781
:104330000135C2E7E1185A1C302081F843002244BD
:1043400094F8451082F843100233C4E70123224653
:1043500039463046C0470130E6D009F10109D7E7B8
:104360002DE9F04317460A7E85B06E2A9846064628
:104370000C460C9B01F1430E00F0BC801AD8632A56
:104380002ED00AD8002A00F0C880582A00F08A806F
:1043900004F1420584F842202AE0642A01D0692A07
:1043A000F6D121681A6811F0800F23D0111D196011
:1043B000136827E0732A00F0B48008D86F2A2AD047
:1043C000702AE5D10A6842F020020A6003E0752AEB
:1043D00021D0782ADCD1782284F845206E4964E027
:1043E0001A6801F14205111D1960136884F8423002
:1043F0000123A3E011F0400F02F104011960D7D0AE
:10440000B2F90030002B03DA2D225B4284F84320FE
:1044100062490A2217E02068196810F0800F03D063
:10442000081D18600B6806E010F0400F01F1040051
:104430001860F7D00B8859496F2A14BF0A22082246
:10444000002084F843006568A560002DC0F29C80C0
:10445000206820F004002060002B3FD1002D40F0A8
:1044600095807546082A0BD12368DA0708D5236999
:1044700062689A42DEBF302305F8013C05F1FF3542
:10448000AEEB05032361CDF800803B4603AA21462D
:104490003046FFF7EFFE013055D14FF0FF3005B049
:1044A000BDE8F08381F845203C492268186812F085
:1044B000800F00F104051D6001D0036802E055067D
:1044C000FBD50388D00744BF42F0200222601BB90D
:1044D000226822F0200222601022B1E77546B3FB69
:1044E000F2F002FB1033CB5C05F8013D03460028D7
:1044F000F5D1B7E708681A68496910F0800F04D051
:10450000101D18601368196007E010F0400F02F1E9
:10451000040018601368F6D01980002323617546E3
:10452000B1E71A68111D19601568626800212846F4
:10453000FBF756FE08B1401B6060636823610023EF
:1045400084F843309FE723692A4639463046C047FE
:104550000130A2D023689B0707D5002504F1190973
:10456000E368039A9B1A9D4205DBE068039B98422F
:10457000B8BF184693E701234A4639463046C0473C
:1045800001308AD00135EBE7002BA7D10B7884F8F6
:10459000423004F1420565E73B5900082A590008FA
:1045A00010B5431E0A44914200D110BD11F8014BD1
:1045B00003F8014FF7E7884210B501EB020303D877
:1045C000421E99420CD110BD9842F9D28118D21ADC
:1045D000D34200D110BD13F8014D01F8014DF7E7AA
:1045E00011F8014B02F8014FEBE7000038B5054622
:1045F000002945D051F8043C0C1F002BB8BFE4182B
:1046000000F0D6F81F4A1368104633B9636014608F
:104610002846BDE8384000F0CCB8A3420CD9216848
:104620006218934204BF1A685B68636004BF521843
:1046300022600460ECE713465A680AB1A242FAD934
:1046400019685818A0420BD12068014458188242BA
:104650001960DDD1106852685A6001441960D7E7CB
:1046600002D90C232B60D3E7206821188A4204BFAB
:1046700011685268626004BF091821605C60C7E776
:1046800038BD00BFA800002070B5CD1C25F0030583
:1046900008350C2D38BF0C25002D064601DBA9423C
:1046A00003D90C233360002070BD00F081F8234A49
:1046B0001468214691B9224C23681BB9304600F09A
:1046C00067F820602946304600F062F8431C26D186
:1046D0000C233360304600F06CF8E4E70B685B1B9A
:1046E0001AD40B2B0FD90B60CD50CC18304600F0EC
:1046F00060F804F10B00231D20F00700C31A1BD043
:104700005A42E25070BD8C420DBF63684B686360D3
:10471000136018BF0C46E9E70C464968CAE7C41C99
:1047200024F00304A04205D0211A304600F030F8EE
:104730000130CDD02560D9E770BD00BFA8000020B2
:10474000AC000020F8B5074614460E4621B91146C4
:10475000BDE8F840FFF798BF22B9FFF747FF2546AD
:104760002846F8BD00F026F884420FD92146384685
:10477000FFF78AFF05460028F2D031462246FFF7B0
:104780000FFF31463846FFF731FFE9E73546E7E7E7
:1047900038B5064C002305460846236001F058F85A
:1047A000431C02D1236803B12B6038BDCC6F0020BD
:1047B0007047704751F8040C0028A0F10400BCBFFA
:1047C0000B58C018704700001FB551EC100B204A61
:1047D00021F00043934207DC9FED1B1B002000F0FB
:1047E00067FE51EC100B07E01A4A934209DD10EE08
:1047F000102A0B46FBF748FD41EC100B05B05DF8A5
:1048000004FB684600F028F800F0030001289DED45
:10481000021B9DED000B04D0022805D070B90120C9
:10482000DDE700F00DFADCE7012000F041FE53EC7B
:10483000102B10EE100A03F10041DDE700F000FA42
:10484000F5E700BFAFF300800000000000000000AB
:10485000FB21E93FFFFFEF7F2DE9F04F57EC106B95
:10486000C34B8DB027F0004898450446049707DCF9
:104870000022002384ED000BC0E90223002527E07D
:10488000BC4B984575DC049BBB4D002B10EE100A09
:10489000A9A3D3E90023394636DDFBF7F5FCA8458B
:1048A00006460F4618D0A6A3D3E90023FBF7ECFC7D
:1048B00002460B46C4E9002330463946FBF7E4FCC8
:1048C0009FA3D3E90023FBF7DFFCC4E90201012524
:1048D00028460DB0BDE8F08F9BA3D3E90023FBF77A
:1048E000D3FC9BA3D3E9002306460F46FBF7CCFC81
:1048F00002460B46C4E9002330463946FBF7C4FCA8
:1049000093A3D3E90023DEE7FBF7C0FCA8450646E6
:104910000F4616D08AA3D3E90023FBF7B7FC024663
:104920000B46C4E9002330463946FBF7ADFC84A3AF
:10493000D3E90023FBF7AAFC4FF0FF35C4E90201DD
:10494000C6E781A3D3E90023FBF7A0FC80A3D3E94A
:10495000002306460F46FBF799FC02460B46C4E9C6
:10496000002330463946FBF78FFC79A3D3E90023B7
:10497000E0E7824B984500F3D08000F053FE57ECFF
:10498000106B10EE100A74A3D3E900233946FBF72D
:104990002FFE00227A4BFBF779FCFCF7C3F80546A3
:1049A000FBF7C0FD64A3D3E90023CDE90201FBF7C7
:1049B0001FFE02460B4630463946FBF765FC60A3F6
:1049C000D3E9002382468B46DDE90201FBF710FEA6
:1049D0001F2D06460F462ADC6A1E6A4B53F822300A
:1049E000984524D032463B4650465946FBF74CFC8E
:1049F000C4E90001D4E90089504642464B46594675
:104A0000FBF742FC3B463246FBF73EFC049B002B87
:104A1000C4E90201BFF65CAF09F100436360C4F86A
:104A20000080A06001F10043E3606D4250E7324630
:104A30003B4650465946FBF727FC4FEA2852C1F344
:104A40000A53D31A102BC4E900010592D2DD3EA30C
:104A5000D3E90023DDE90201FBF7CAFD06460F4654
:104A600002460B4650465946FBF70EFC02460B46E3
:104A70008046894650465946FBF706FC32463B467F
:104A8000FBF702FC32A3D3E9002306460F46DDE91B
:104A90000201FBF7ADFD32463B46FBF7F5FB024654
:104AA0000B4606460F4640464946FBF7EDFB059A86
:104AB000C1F30A53D31A312BC4E900012ADD28A31C
:104AC000D3E90023DDE90201FBF792FD06460F461C
:104AD00002460B4640464946FBF7D6FB02460B46CC
:104AE00082468B4640464946FBF7CEFB32463B4664
:104AF000FBF7CAFB1CA3D3E9002306460F46DDE9FA
:104B00000201FBF775FD32463B46FBF7BDFB06464F
:104B10000F4667E7C246CB466CE71B4B984535DD31
:104B200010EE102A3B4630463946FBF7ADFBC4E990
:104B30000201C4E90001A1E600004054FB21F93F55
:104B40003163621A61B4D03D0000601A61B4D03D97
:104B50007370032E8A19A33B83C8C96D305FE43F8D
:104B60000000002E8A19A33BC14920259A837B3976
:104B7000FB21E93F7BD90240FB21F93FFB21394171
:104B80000000E03F4C590008FFFFEF7F4FEA285537
:104B9000A5F21645A8EB055130460F46FBF7C2FFBC
:104BA000FBF7C0FC02460B4630463946CDE90623EA
:104BB000FBF76AFB00221F4BFBF71AFD0F46064668
:104BC000FBF7B0FFFBF7AEFC02460B46304639461A
:104BD000CDE90823FBF758FB0022164BFBF708FD35
:104BE000CDE90A010DF130094FF003080026002736
:104BF00032463B4679E9020108F1FF3AFBF760FFD4
:104C0000B0B90D4B0193022300932A464346214637
:104C100006A800F0FDF8049B002B0546BFF658AE31
:104C2000636803F100436360E36803F10043FBE65C
:104C3000D046DDE700007041CC59000800000000BC
:104C40002DE9F04F59EC108B29F0004785B0B7F1F2
:104C5000795F8DED001B07DA10EE100A4946FBF76D
:104C600061FF002800F0AA8042464B464046494674
:104C7000FBF7BEFC59A3D3E9002304460D46FBF71E
:104C8000B7FC58A3D3E90023FBF700FB22462B46D1
:104C9000FBF7AEFC55A3D3E90023FBF7F5FA224658
:104CA0002B46FBF7A5FC53A3D3E90023FBF7EEFA51
:104CB00022462B46FBF79CFC50A3D3E90023FBF7CD
:104CC000E3FA22462B46FBF793FC4EA3D3E90023DD
:104CD000FBF7DCFA2B462246FBF78AFC3A4B9F4255
:104CE00082468B462CDC0022384B20462946FBF7B7
:104CF0007FFC524606460F465B4620462946FBF798
:104D000077FCDDE9002304460D4640464946FBF7A3
:104D10006FFC02460B4620462946FBF7B5FA0246D1
:104D20000B4630463946FBF7AFFA0B462849024698
:104D30000020FBF7A9FA41EC100B05B0BDE8F08F9D
:104D4000244B23499F42D7BFA7F50013224F0022CF
:104D50001646D4BF1F46002632463B460020FBF7CE
:104D600093FA0022CDE90201184B20462946FBF7B1
:104D70003FFC32463B46FBF787FA524606460F4653
:104D80005B4620462946FBF733FCDDE90023044659
:104D90000D4640464946FBF72BFC02460B46204693
:104DA0002946FBF771FA02460B4630463946FBF7B7
:104DB0006BFA02460B46DDE90201BAE7002004491E
:104DC000B9E700BFAFF300803233D33F0000E03FCC
:104DD0000000F03F0000E93F0000D23FD43888BE19
:104DE000E9FAA8BDC4B1B4BD9EEE213EAD529C808F
:104DF0004F7E923E9015CB19A001FA3E7751C11615
:104E00006CC1563F4C5555555555A53F0000000007
:104E10002DE9F04F2DED028BADF5197DD41E0693D3
:104E20000291C34BA499099053F821300093069B3B
:104E3000013B0493182394FBF3F46FF0170324EA67
:104E4000E47404FB033303EB020A009B049A9FED16
:104E5000B48B03EB0208A59BA71A20AE03EB8709CE
:104E60000025454513DD9FEDAE8B0DF5E07B00265B
:104E7000009B9E4232DC099B0393069B9D1920AB4D
:104E800003EBC503089359EC188B00271FE0EF4292
:104E900007D459F82500FBF745FBE6E80201013588
:104EA000DFE751EC180BF8E70899039D71E902233D
:104EB0000891F5E802010395FBF79AFB02460B46C1
:104EC00040464946FBF7E2F9013780468946049B94
:104ED0009F42E9DDEBE802890136C9E7009B009FAC
:104EE0000CAA02EB83030B93A59B03EB84030A93A9
:104EF00098AB07F1005B03EBC7030BF1FF3B53E9F2
:104F000028894FEACB030893089A98AB1344A3F17E
:104F1000980B0026BB1B002B77DC49EC108B50460E
:104F200000F00EFC55EC104B00224FF07F5310EEBA
:104F3000100A2946FBF75CFB41EC100B00F07CFBF0
:104F4000002251EC100B7B4BFBF752FB02460B4649
:104F500020462946FBF798F90D460446FBF7E2FD8B
:104F60000390FBF7DFFA02460B4620462946FBF783
:104F70008BF9BAF1000F804689466BDD7A1E0CABC7
:104F8000CAF1180153F82200039C40FA01F31C44B3
:104F90008B40C01A0CAB039443F82200CAF11703EC
:104FA00040FA03FBBBF1000F62DD039B00220133DB
:104FB000039314466FF07F41974200F38980BAF162
:104FC000000F07DDBAF1010F00F09680BAF1020F71
:104FD00000F09C80BBF1020F4AD142464B460020B4
:104FE0005549FBF751F980468946002C40D0504680
:104FF0009FED4D0B00F0A4FB4046494653EC102BAF
:10500000FBF742F98046894632E000224B4B40468E
:105010004946FBF7EDFAFBF785FDFBF783FA002223
:10502000474B04460D46FBF7E3FA02460B46404663
:105030004946FBF729F9FBF775FD0CAB294643F808
:1050400026007BE902232046FBF720F90136804643
:1050500089465FE706D17B1E0CAA52F823004FEA6F
:10506000E05B9FE70022374BFBF748FD68BB8346B8
:105070000022002340464946FBF722FD002800F0AD
:10508000C1807C1E2346002200998B425CDA002AF4
:1050900040F08B8001246FF0030202FB04F30B99B4
:1050A000CB58002B56D0089B98AA1344A3F1900B21
:1050B000069BDD1920AB03EBC505E3197E1C0393AA
:1050C000039B9E4248DD1F4612E74FF0020B6CE740
:1050D0000CAB53F822304CB92BB10CA8C3F1807340
:1050E00040F82230012301321C4665E70CA8CB1A98
:1050F00040F822302346F6E77A1E0CAB53F82230F4
:10510000C3F316030CA941F8223063E77A1E0CABF7
:1051100053F82230C3F31503F4E700BFAFF3008068
:105120000000000000000000000000000000F03F50
:10513000185B0008000020400000F03F0000703EB7
:10514000000070410000E03F0CA951F82310013B22
:105150000A4399E70134A0E70A9B53F82600FBF7BE
:10516000E1F9E5E80201099B08951C4600274FF08C
:1051700000084FF00009049B9F4203DDEBE8028921
:1051800001369DE7089971E902230891F4E80201CC
:10519000FBF72EFA02460B4640464946FBF776F8E7
:1051A000013780468946E6E7013C0CABAAF1180AB4
:1051B00053F82430002BF7D050469FEDB50B00F08C
:1051C000BFFAE50098AB03EB050957EC106BA9F1AA
:1051D0009809A046B8F1000F4DDA9FEDAF8B0DF5A1
:1051E000907A002304935746049BB4EB030976D4CA
:1051F000AB4B1E4670AB03EBC9098DED068B4FF030
:1052000000085EE0CAF1000049EC108B00F098FA4B
:1052100055EC104B0022A34B10EE100A2946FBF769
:105220006DFCF8B10022A04B20462946FBF7E0F9BF
:10523000FBF778FC0646FBF775F90022994BFBF764
:10524000D7F90B46024629462046FBF71DF8FBF727
:1052500069FC7C1C0CAB0AF1180A43F8270043F8E0
:105260002460A9E720462946FBF75CFC0CAB3C46D2
:1052700043F82700A0E70CAB53F82800FBF752F9DE
:1052800032463B46FBF7B4F9002269E90201864B3E
:1052900030463946FBF7ACF908F1FF3806460F46B1
:1052A00098E7F9E80223F6E80201FBF7A1F90246C4
:1052B0000B46DDE90601FAF7E9FFCDE9060108F141
:1052C0000108009B984502DC049B9845E9DD049B9E
:1052D0009DED067B0133AAEC027B049384E7A49B3B
:1052E000032B5DD8DFE803F04B26260298AB1D4464
:1052F000A5F59C752E46A246BAF1000F6EDC2E462F
:10530000A246BAF1010F00F38A8000200021012C8F
:1053100000F3A680BBF1000F40F0A880DDE9482330
:10532000029CC4E90023DDE94A23C4E90401C4E97D
:10533000022335E0083548AB1D44264600200021F5
:10534000002E3CDABBF1000F3FD0024601F10043D2
:10535000029DC5E9002302460B46DDE94801FAF744
:1053600093FF4AAE0125AC4232DABBF1000F02D006
:1053700001F100431946029BC3E9020110E098AB1A
:105380001D44A5F59C7500200021002C11DABBF10D
:10539000000F02D001F100431946029BC3E900014E
:1053A000039B03F007000DF5197DBDEC028BBDE8F2
:1053B000F08F75E90223FAF769FF013CE5E775E92B
:1053C0000223FAF763FF013EBAE702460B46BFE746
:1053D000F6E80223FAF75AFF0135C4E716ED027B1F
:1053E00056E9048953EC172B404649468DED007B66
:1053F000FAF74CFFCDE9040102460B464046494608
:10540000FAF742FFDDE90023FAF740FF9DED047B48
:1054100066E902010AF1FF3A06ED027B6CE716ED40
:10542000027B56E9048953EC172B404649468DED23
:10543000007BFAF72BFFCDE9040102460B464046FC
:105440004946FAF721FFDDE90023FAF71FFF9DED3A
:10545000047B66E902010AF1FF3A06ED027B50E7A0
:1054600075E90223FAF712FF013C50E7029A3B6804
:1054700013607B68106103F100435360BB68936065
:10548000FB6803F10043D36001F10043536187E7F8
:10549000000000000000F03F0000000000000000DD
:1054A000D85A0008000070410000703E0000000063
:1054B0002DE9F04F55EC104B85B025F00043B3F1CA
:1054C000795F8DED001B029006DA10EE100A294676
:1054D000FBF728FB002851D022462B4620462946C0
:1054E000FBF786F882468B4602460B462046294645
:1054F000FBF77EF841A3D3E9002380468946504656
:105500005946FBF775F83FA3D3E90023FAF7BCFE31
:1055100052465B46FBF76CF83CA3D3E90023FAF74D
:10552000B5FE52465B46FBF763F83AA3D3E9002386
:10553000FAF7AAFE52465B46FBF75AF837A3D3E9BF
:105540000023FAF7A3FE029B06460F46DBB902468C
:105550000B4650465946FBF74BF825A3D3E90023E9
:10556000FAF792FE42464B46FBF742F802460B46DC
:1055700020462946FAF78AFE04460D4645EC104BB4
:1055800005B0BDE8F08F00221B4BDDE90001FBF701
:105590002FF83246CDE902013B4640464946FBF72B
:1055A00027F802460B46DDE90201FAF76DFE524686
:1055B0005B46FBF71DF8DDE90023FAF765FE0CA357
:1055C000D3E9002306460F4640464946FBF710F84C
:1055D00002460B4630463946FAF758FE02460B465D
:1055E00020462946FAF750FEC6E700BFAFF3008019
:1055F000495555555555C53F0000E03F7CD5CF5A1C
:105600003AD9E53DEB9C2B8AE6E55A3E7DFEB15743
:10561000E31DC73ED561C119A0012A3FA6F81011AC
:105620001111813F53EC102B23F0004343EC102B5E
:10563000704700000000000051EC100B2DE9F04114
:10564000C1F30A57A7F2FF36132E10EE108A0C464C
:1056500010EE105A35DC002E17DA35A3D3E90023FB
:10566000FAF714FE00220023FBF752FA50B1002C87
:105670005ADA24F0004353EA08032F4B4FF0000599
:1056800018BF1C462146284625E02C4F374101EA29
:10569000070303431FD026A3D3E90023FAF7F6FD3F
:1056A00000220023FBF734FA0028EBD0002CBEBF09
:1056B0004FF4801343FA06F6A41924EA07040025E0
:1056C000E0E7332E0BDDB6F5806F04D110EE102A23
:1056D0000B46FAF7DBFD41EC100BBDE8F081A7F2B9
:1056E00013474FF0FF3323FA07F73842F3D010A3E4
:1056F000D3E90023FAF7CAFD00220023FBF708FADA
:105700000028BFD0002C02DA142E03D1013425EA80
:105710000705B7E70123C6F1340603FA06F6354458
:10572000A84588BFE418F2E700252C46AAE700BF89
:105730009C7500883CE4377E0000F0BFFFFF0F003F
:1057400070B555EC104BC5F30A5206462B46B2B95C
:1057500025F0004323433CD00022334B294610EE72
:10576000100AFAF745FF314A964204460D460B46A9
:1057700013DA29A3D3E90023FAF73AFF0AE040F24B
:10578000FF718A420CD110EE102A2B462046294682
:10579000FAF77CFD04460D461BE0C1F30A52363A87
:1057A000324440F2FE718A420BDD45EC114B9FED15
:1057B0001C0B00F03FF81AA3D3E9002351EC100BA7
:1057C000DAE7002A08DD23F0FF4323F4E00343EA8D
:1057D000025545EC104B70BD12F1350F0DDA4CF24D
:1057E00050339E4245EC114BE1DC9FED0B0B00F07A
:1057F00021F809A3D3E90023E0E723F0FF43363281
:1058000023F4E00343EA0255204629460022084BD0
:10581000B2E700BFAFF3008059F3F8C21F6EA501D5
:105820009C7500883CE4377E00005043B03CFFFF8D
:105830000000903C53EC102B11EE900A23F0004135
:1058400000F0004041EA000343EC102B70470000D9
:10585000044B1968024609B90349196018680244E3
:105860001A607047B0000020D06F0020F8B500BF6C
:10587000F8BC08BC9E467047F8B500BFF8BC08BC31
:045880009E46704789
:10588800436F6E7374616E74652C76656C3A25642B
:10589800202C667265713A2025640A0056656C6F83
:1058A800636974793A200076616C6F7220646520B0
:1058B800693A00256400202C2000200A00436F6EFE
:1058C8007374616E74652C76656C3A2564202C704F
:1058D8006572696F646F3A2025640A004F4B200097
:1058E800494E5445525255505400686F6D652066B4
:1058F800696E69736865640A0000000000000000B2
:105908000001020304060708090000000001020361
:1059180004232D302B2000686C4C006566674546D3
:105928004700303132333435363738394142434411
:1059380045460030313233343536373839616263A1
:1059480064656600FB21F93FFB2109407CD91240C0
:10595800FB2119407A6A1F407CD92240BBFD2540B3
:10596800FB2129403A462C407A6A2F405C47314057
:105978007CD932409C6B3440BBFD3540DB8F3740CF
:10598800FB2139401BB43A403A463C405AD83D4086
:105998007A6A3F404C7E40405C4741406C10424030
:1059A8007CD942408CA243409C6B4440AC34454077
:1059B800BBFD4540CBC64640DB8F4740EB584840CF
:1059C800FB21494083F9A200444E6E00FC291500D2
:1059D800D1572700DD34F50062DBC0003C99950003
:1059E800419043006351FE00BBDEAB00B761C500C8
:1059F8003A6E2400D24D42004906E00009EA2E0022
:105A08001C92D100EB1DFE0029B11C00E83EA70046
:105A1800F535820044BB2E009CE98400B426700052
:105A2800417E5F00D6913900538339009CF43900D8
:105A38008B5F840028F9BD00F81F3B00DEFF97004C
:105A48000F980500112FEF000A5A8B006D1F6D008B
:105A5800CF7E360009CB2700464FB7009E663F0031
:105A68002DEA5F00BA277500E5EBC7003D7BF10022
:105A7800F739070092528A00FB6BEA001FB15F00FA
:105A8800085D8D00300356007BFC4600F0AB6B00D0
:105A980020BCCF0036F49A00E3A91D005E61910096
:105AA800081BE60085996500A0145F008D4068001A
:105AB80080D8FF0027734D0006063100CA5615002E
:105AC800C9A873007BE260006B8CC0000000000076
:105AD80000000040FB21F93F000000002D44743E07
